{
  "_format": "hh-sol-artifact-1",
  "contractName": "WavePortal",
  "sourceName": "contracts/WavePortal.sol",
  "abi": [
    {
      "inputs": [],
      "stateMutability": "payable",
      "type": "constructor"
    },
    {
      "anonymous": false,
      "inputs": [
        {
          "indexed": true,
          "internalType": "address",
          "name": "from",
          "type": "address"
        },
        {
          "indexed": false,
          "internalType": "string",
          "name": "message",
          "type": "string"
        },
        {
          "indexed": false,
          "internalType": "uint256",
          "name": "timestamp",
          "type": "uint256"
        }
      ],
      "name": "NewWave",
      "type": "event"
    },
    {
      "anonymous": false,
      "inputs": [
        {
          "indexed": false,
          "internalType": "address",
          "name": "receiver",
          "type": "address"
        },
        {
          "indexed": false,
          "internalType": "uint256",
          "name": "amount",
          "type": "uint256"
        }
      ],
      "name": "PrizeMoneySent",
      "type": "event"
    },
    {
      "inputs": [],
      "name": "getAllWaves",
      "outputs": [
        {
          "components": [
            {
              "internalType": "address",
              "name": "waver",
              "type": "address"
            },
            {
              "internalType": "string",
              "name": "message",
              "type": "string"
            },
            {
              "internalType": "uint256",
              "name": "timestamp",
              "type": "uint256"
            }
          ],
          "internalType": "struct WavePortal.Wave[]",
          "name": "",
          "type": "tuple[]"
        }
      ],
      "stateMutability": "view",
      "type": "function"
    },
    {
      "inputs": [],
      "name": "totalWaveCount",
      "outputs": [
        {
          "internalType": "uint256",
          "name": "",
          "type": "uint256"
        }
      ],
      "stateMutability": "view",
      "type": "function"
    },
    {
      "inputs": [
        {
          "internalType": "string",
          "name": "_message",
          "type": "string"
        }
      ],
      "name": "wave",
      "outputs": [],
      "stateMutability": "nonpayable",
      "type": "function"
    },
    {
      "inputs": [
        {
          "internalType": "uint256",
          "name": "",
          "type": "uint256"
        }
      ],
      "name": "waves",
      "outputs": [
        {
          "internalType": "address",
          "name": "waver",
          "type": "address"
        },
        {
          "internalType": "string",
          "name": "message",
          "type": "string"
        },
        {
          "internalType": "uint256",
          "name": "timestamp",
          "type": "uint256"
        }
      ],
      "stateMutability": "view",
      "type": "function"
    }
  ],
  "bytecode": "0x608060405262000033604051806060016040528060248152602001620011df602491396200003960201b6200063f1760201c565b620001cd565b620000d98160405160240162000050919062000146565b6040516020818303038152906040527f41304fac000000000000000000000000000000000000000000000000000000007bffffffffffffffffffffffffffffffffffffffffffffffffffffffff19166020820180517bffffffffffffffffffffffffffffffffffffffffffffffffffffffff8381831617835250505050620000dc60201b60201c565b50565b60008151905060006a636f6e736f6c652e6c6f679050602083016000808483855afa5050505050565b600062000112826200016a565b6200011e818562000175565b93506200013081856020860162000186565b6200013b81620001bc565b840191505092915050565b6000602082019050818103600083015262000162818462000105565b905092915050565b600081519050919050565b600082825260208201905092915050565b60005b83811015620001a657808201518184015260208101905062000189565b83811115620001b6576000848401525b50505050565b6000601f19601f8301169050919050565b61100280620001dd6000396000f3fe608060405234801561001057600080fd5b506004361061004c5760003560e01c8063449d46c014610051578063bd43a9081461006d578063c781267a1461008b578063e933f5c3146100bd575b600080fd5b61006b600480360381019061006691906108bd565b6100db565b005b610075610406565b6040516100829190610c10565b60405180910390f35b6100a560048036038101906100a091906108fe565b610557565b6040516100b493929190610ba9565b60405180910390f35b6100c5610639565b6040516100d29190610cc4565b60405180910390f35b60016000808282546100ed9190610db1565b92505081905550600060405180606001604052803373ffffffffffffffffffffffffffffffffffffffff168152602001838152602001428152509050600181908060018154018082558091505060019003906000526020600020906003020160009091909190915060008201518160000160006101000a81548173ffffffffffffffffffffffffffffffffffffffff021916908373ffffffffffffffffffffffffffffffffffffffff16021790555060208201518160010190805190602001906101b892919061079d565b506040820151816002015550503373ffffffffffffffffffffffffffffffffffffffff167f6728ef66814a55b797863bf8ffcd954b19cbca4ed4f0e6cf04c980705fd82c36834260405161020d929190610c54565b60405180910390a26000606460025442446102289190610db1565b6102329190610db1565b61023c9190610eb7565b905061027d6040518060400160405280601681526020017f52616e646f6d20232067656e6572617465643a20257300000000000000000000815250826106d8565b806002819055506032811015610401576102cb6040518060400160405280601b81526020017f77696e6e65722077696e6e657220636869636b656e2064696e6e61000000000081525061063f565b6000655af3107a4000905047811115610319576040517f08c379a000000000000000000000000000000000000000000000000000000000815260040161031090610ca4565b60405180910390fd5b60003373ffffffffffffffffffffffffffffffffffffffff168260405161033f90610b94565b60006040518083038185875af1925050503d806000811461037c576040519150601f19603f3d011682016040523d82523d6000602084013e610381565b606091505b50509050806103c5576040517f08c379a00000000000000000000000000000000000000000000000000000000081526004016103bc90610c84565b60405180910390fd5b7f91a1effa1fdfb2637c318a79fd134e723580ac0f2f6d001dfc2688905d7d04ab33836040516103f6929190610be7565b60405180910390a150505b505050565b60606001805480602002602001604051908101604052809291908181526020016000905b8282101561054e57838290600052602060002090600302016040518060600160405290816000820160009054906101000a900473ffffffffffffffffffffffffffffffffffffffff1673ffffffffffffffffffffffffffffffffffffffff1673ffffffffffffffffffffffffffffffffffffffff1681526020016001820180546104b390610e85565b80601f01602080910402602001604051908101604052809291908181526020018280546104df90610e85565b801561052c5780601f106105015761010080835404028352916020019161052c565b820191906000526020600020905b81548152906001019060200180831161050f57829003601f168201915b505050505081526020016002820154815250508152602001906001019061042a565b50505050905090565b6001818154811061056757600080fd5b90600052602060002090600302016000915090508060000160009054906101000a900473ffffffffffffffffffffffffffffffffffffffff16908060010180546105b090610e85565b80601f01602080910402602001604051908101604052809291908181526020018280546105dc90610e85565b80156106295780601f106105fe57610100808354040283529160200191610629565b820191906000526020600020905b81548152906001019060200180831161060c57829003601f168201915b5050505050908060020154905083565b60005481565b6106d5816040516024016106539190610c32565b6040516020818303038152906040527f41304fac000000000000000000000000000000000000000000000000000000007bffffffffffffffffffffffffffffffffffffffffffffffffffffffff19166020820180517bffffffffffffffffffffffffffffffffffffffffffffffffffffffff8381831617835250505050610774565b50565b61077082826040516024016106ee929190610c54565b6040516020818303038152906040527f9710a9d0000000000000000000000000000000000000000000000000000000007bffffffffffffffffffffffffffffffffffffffffffffffffffffffff19166020820180517bffffffffffffffffffffffffffffffffffffffffffffffffffffffff8381831617835250505050610774565b5050565b60008151905060006a636f6e736f6c652e6c6f679050602083016000808483855afa5050505050565b8280546107a990610e85565b90600052602060002090601f0160209004810192826107cb5760008555610812565b82601f106107e457805160ff1916838001178555610812565b82800160010185558215610812579182015b828111156108115782518255916020019190600101906107f6565b5b50905061081f9190610823565b5090565b5b8082111561083c576000816000905550600101610824565b5090565b600061085361084e84610d10565b610cdf565b90508281526020810184848401111561086b57600080fd5b610876848285610e43565b509392505050565b600082601f83011261088f57600080fd5b813561089f848260208601610840565b91505092915050565b6000813590506108b781610fb5565b92915050565b6000602082840312156108cf57600080fd5b600082013567ffffffffffffffff8111156108e957600080fd5b6108f58482850161087e565b91505092915050565b60006020828403121561091057600080fd5b600061091e848285016108a8565b91505092915050565b60006109338383610b26565b905092915050565b61094481610e07565b82525050565b61095381610e07565b82525050565b600061096482610d50565b61096e8185610d73565b93508360208202850161098085610d40565b8060005b858110156109bc578484038952815161099d8582610927565b94506109a883610d66565b925060208a01995050600181019050610984565b50829750879550505050505092915050565b60006109d982610d5b565b6109e38185610d8f565b93506109f3818560208601610e52565b6109fc81610fa4565b840191505092915050565b6000610a1282610d5b565b610a1c8185610da0565b9350610a2c818560208601610e52565b610a3581610fa4565b840191505092915050565b6000610a4d602783610da0565b91507f4661696c656420746f207769746864726177206d6f6e65792066726f6d20636f60008301527f6e74726163742e000000000000000000000000000000000000000000000000006020830152604082019050919050565b6000610ab3603583610da0565b91507f547279696e6720746f207769746864726177206d6f7265206d6f6e657920746860008301527f616e207468657920636f6e7472616374206861732e00000000000000000000006020830152604082019050919050565b6000610b19600083610d84565b9150600082019050919050565b6000606083016000830151610b3e600086018261093b565b5060208301518482036020860152610b5682826109ce565b9150506040830151610b6b6040860182610b76565b508091505092915050565b610b7f81610e39565b82525050565b610b8e81610e39565b82525050565b6000610b9f82610b0c565b9150819050919050565b6000606082019050610bbe600083018661094a565b8181036020830152610bd08185610a07565b9050610bdf6040830184610b85565b949350505050565b6000604082019050610bfc600083018561094a565b610c096020830184610b85565b9392505050565b60006020820190508181036000830152610c2a8184610959565b905092915050565b60006020820190508181036000830152610c4c8184610a07565b905092915050565b60006040820190508181036000830152610c6e8185610a07565b9050610c7d6020830184610b85565b9392505050565b60006020820190508181036000830152610c9d81610a40565b9050919050565b60006020820190508181036000830152610cbd81610aa6565b9050919050565b6000602082019050610cd96000830184610b85565b92915050565b6000604051905081810181811067ffffffffffffffff82111715610d0657610d05610f75565b5b8060405250919050565b600067ffffffffffffffff821115610d2b57610d2a610f75565b5b601f19601f8301169050602081019050919050565b6000819050602082019050919050565b600081519050919050565b600081519050919050565b6000602082019050919050565b600082825260208201905092915050565b600081905092915050565b600082825260208201905092915050565b600082825260208201905092915050565b6000610dbc82610e39565b9150610dc783610e39565b9250827fffffffffffffffffffffffffffffffffffffffffffffffffffffffffffffffff03821115610dfc57610dfb610ee8565b5b828201905092915050565b6000610e1282610e19565b9050919050565b600073ffffffffffffffffffffffffffffffffffffffff82169050919050565b6000819050919050565b82818337600083830152505050565b60005b83811015610e70578082015181840152602081019050610e55565b83811115610e7f576000848401525b50505050565b60006002820490506001821680610e9d57607f821691505b60208210811415610eb157610eb0610f46565b5b50919050565b6000610ec282610e39565b9150610ecd83610e39565b925082610edd57610edc610f17565b5b828206905092915050565b7f4e487b7100000000000000000000000000000000000000000000000000000000600052601160045260246000fd5b7f4e487b7100000000000000000000000000000000000000000000000000000000600052601260045260246000fd5b7f4e487b7100000000000000000000000000000000000000000000000000000000600052602260045260246000fd5b7f4e487b7100000000000000000000000000000000000000000000000000000000600052604160045260246000fd5b6000601f19601f8301169050919050565b610fbe81610e39565b8114610fc957600080fd5b5056fea264697066735822122071c05dde718563bcf835acdcffaf2f72be2a2cf4f536553c4b4613eb8ac9afe164736f6c63430008000033596f20796f2c204920616d206120636f6e747261637420616d204920616d20736d617274",
  "linkReferences": {},
  "deployedLinkReferences": {}
}