{
  "_format": "hh-sol-artifact-1",
  "contractName": "WavePortal",
  "sourceName": "contracts/WavePortal.sol",
  "abi": [
    {
      "inputs": [],
      "stateMutability": "nonpayable",
      "type": "constructor"
    },
    {
      "anonymous": false,
      "inputs": [
        {
          "indexed": true,
          "internalType": "address",
          "name": "from",
          "type": "address"
        },
        {
          "indexed": false,
          "internalType": "string",
          "name": "message",
          "type": "string"
        },
        {
          "indexed": false,
          "internalType": "uint256",
          "name": "timestamp",
          "type": "uint256"
        }
      ],
      "name": "NewWave",
      "type": "event"
    },
    {
      "inputs": [],
      "name": "getAllWaves",
      "outputs": [
        {
          "components": [
            {
              "internalType": "address",
              "name": "waver",
              "type": "address"
            },
            {
              "internalType": "string",
              "name": "message",
              "type": "string"
            },
            {
              "internalType": "uint256",
              "name": "timestamp",
              "type": "uint256"
            }
          ],
          "internalType": "struct WavePortal.Wave[]",
          "name": "",
          "type": "tuple[]"
        }
      ],
      "stateMutability": "view",
      "type": "function"
    },
    {
      "inputs": [],
      "name": "totalWaveCount",
      "outputs": [
        {
          "internalType": "uint256",
          "name": "",
          "type": "uint256"
        }
      ],
      "stateMutability": "view",
      "type": "function"
    },
    {
      "inputs": [
        {
          "internalType": "string",
          "name": "_message",
          "type": "string"
        }
      ],
      "name": "wave",
      "outputs": [],
      "stateMutability": "nonpayable",
      "type": "function"
    },
    {
      "inputs": [
        {
          "internalType": "uint256",
          "name": "",
          "type": "uint256"
        }
      ],
      "name": "waves",
      "outputs": [
        {
          "internalType": "address",
          "name": "waver",
          "type": "address"
        },
        {
          "internalType": "string",
          "name": "message",
          "type": "string"
        },
        {
          "internalType": "uint256",
          "name": "timestamp",
          "type": "uint256"
        }
      ],
      "stateMutability": "view",
      "type": "function"
    }
  ],
  "bytecode": "0x60806040523480156200001157600080fd5b506200004160405180606001604052806024815260200162000d95602491396200004760201b620004521760201c565b620001db565b620000e7816040516024016200005e919062000154565b6040516020818303038152906040527f41304fac000000000000000000000000000000000000000000000000000000007bffffffffffffffffffffffffffffffffffffffffffffffffffffffff19166020820180517bffffffffffffffffffffffffffffffffffffffffffffffffffffffff8381831617835250505050620000ea60201b60201c565b50565b60008151905060006a636f6e736f6c652e6c6f679050602083016000808483855afa5050505050565b6000620001208262000178565b6200012c818562000183565b93506200013e81856020860162000194565b6200014981620001ca565b840191505092915050565b6000602082019050818103600083015262000170818462000113565b905092915050565b600081519050919050565b600082825260208201905092915050565b60005b83811015620001b457808201518184015260208101905062000197565b83811115620001c4576000848401525b50505050565b6000601f19601f8301169050919050565b610baa80620001eb6000396000f3fe608060405234801561001057600080fd5b506004361061004c5760003560e01c8063449d46c014610051578063bd43a9081461006d578063c781267a1461008b578063e933f5c3146100bd575b600080fd5b61006b60048036038101906100669190610634565b6100db565b005b610075610219565b6040516100829190610863565b60405180910390f35b6100a560048036038101906100a09190610675565b61036a565b6040516100b493929190610825565b60405180910390f35b6100c561044c565b6040516100d291906108d7565b60405180910390f35b60016000808282546100ed91906109b9565b92505081905550600060405180606001604052803373ffffffffffffffffffffffffffffffffffffffff168152602001838152602001428152509050600181908060018154018082558091505060019003906000526020600020906003020160009091909190915060008201518160000160006101000a81548173ffffffffffffffffffffffffffffffffffffffff021916908373ffffffffffffffffffffffffffffffffffffffff16021790555060208201518160010190805190602001906101b8929190610514565b506040820151816002015550503373ffffffffffffffffffffffffffffffffffffffff167f6728ef66814a55b797863bf8ffcd954b19cbca4ed4f0e6cf04c980705fd82c36834260405161020d9291906108a7565b60405180910390a25050565b60606001805480602002602001604051908101604052809291908181526020016000905b8282101561036157838290600052602060002090600302016040518060600160405290816000820160009054906101000a900473ffffffffffffffffffffffffffffffffffffffff1673ffffffffffffffffffffffffffffffffffffffff1673ffffffffffffffffffffffffffffffffffffffff1681526020016001820180546102c690610a8d565b80601f01602080910402602001604051908101604052809291908181526020018280546102f290610a8d565b801561033f5780601f106103145761010080835404028352916020019161033f565b820191906000526020600020905b81548152906001019060200180831161032257829003601f168201915b505050505081526020016002820154815250508152602001906001019061023d565b50505050905090565b6001818154811061037a57600080fd5b90600052602060002090600302016000915090508060000160009054906101000a900473ffffffffffffffffffffffffffffffffffffffff16908060010180546103c390610a8d565b80601f01602080910402602001604051908101604052809291908181526020018280546103ef90610a8d565b801561043c5780601f106104115761010080835404028352916020019161043c565b820191906000526020600020905b81548152906001019060200180831161041f57829003601f168201915b5050505050908060020154905083565b60005481565b6104e8816040516024016104669190610885565b6040516020818303038152906040527f41304fac000000000000000000000000000000000000000000000000000000007bffffffffffffffffffffffffffffffffffffffffffffffffffffffff19166020820180517bffffffffffffffffffffffffffffffffffffffffffffffffffffffff83818316178352505050506104eb565b50565b60008151905060006a636f6e736f6c652e6c6f679050602083016000808483855afa5050505050565b82805461052090610a8d565b90600052602060002090601f0160209004810192826105425760008555610589565b82601f1061055b57805160ff1916838001178555610589565b82800160010185558215610589579182015b8281111561058857825182559160200191906001019061056d565b5b509050610596919061059a565b5090565b5b808211156105b357600081600090555060010161059b565b5090565b60006105ca6105c584610923565b6108f2565b9050828152602081018484840111156105e257600080fd5b6105ed848285610a4b565b509392505050565b600082601f83011261060657600080fd5b81356106168482602086016105b7565b91505092915050565b60008135905061062e81610b5d565b92915050565b60006020828403121561064657600080fd5b600082013567ffffffffffffffff81111561066057600080fd5b61066c848285016105f5565b91505092915050565b60006020828403121561068757600080fd5b60006106958482850161061f565b91505092915050565b60006106aa83836107b7565b905092915050565b6106bb81610a0f565b82525050565b6106ca81610a0f565b82525050565b60006106db82610963565b6106e58185610986565b9350836020820285016106f785610953565b8060005b858110156107335784840389528151610714858261069e565b945061071f83610979565b925060208a019950506001810190506106fb565b50829750879550505050505092915050565b60006107508261096e565b61075a8185610997565b935061076a818560208601610a5a565b61077381610b4c565b840191505092915050565b60006107898261096e565b61079381856109a8565b93506107a3818560208601610a5a565b6107ac81610b4c565b840191505092915050565b60006060830160008301516107cf60008601826106b2565b50602083015184820360208601526107e78282610745565b91505060408301516107fc6040860182610807565b508091505092915050565b61081081610a41565b82525050565b61081f81610a41565b82525050565b600060608201905061083a60008301866106c1565b818103602083015261084c818561077e565b905061085b6040830184610816565b949350505050565b6000602082019050818103600083015261087d81846106d0565b905092915050565b6000602082019050818103600083015261089f818461077e565b905092915050565b600060408201905081810360008301526108c1818561077e565b90506108d06020830184610816565b9392505050565b60006020820190506108ec6000830184610816565b92915050565b6000604051905081810181811067ffffffffffffffff8211171561091957610918610b1d565b5b8060405250919050565b600067ffffffffffffffff82111561093e5761093d610b1d565b5b601f19601f8301169050602081019050919050565b6000819050602082019050919050565b600081519050919050565b600081519050919050565b6000602082019050919050565b600082825260208201905092915050565b600082825260208201905092915050565b600082825260208201905092915050565b60006109c482610a41565b91506109cf83610a41565b9250827fffffffffffffffffffffffffffffffffffffffffffffffffffffffffffffffff03821115610a0457610a03610abf565b5b828201905092915050565b6000610a1a82610a21565b9050919050565b600073ffffffffffffffffffffffffffffffffffffffff82169050919050565b6000819050919050565b82818337600083830152505050565b60005b83811015610a78578082015181840152602081019050610a5d565b83811115610a87576000848401525b50505050565b60006002820490506001821680610aa557607f821691505b60208210811415610ab957610ab8610aee565b5b50919050565b7f4e487b7100000000000000000000000000000000000000000000000000000000600052601160045260246000fd5b7f4e487b7100000000000000000000000000000000000000000000000000000000600052602260045260246000fd5b7f4e487b7100000000000000000000000000000000000000000000000000000000600052604160045260246000fd5b6000601f19601f8301169050919050565b610b6681610a41565b8114610b7157600080fd5b5056fea264697066735822122003dc469cf77403111e5c74f57f10073717d5af28042fc4413bb9c8a0c47838e264736f6c63430008000033596f20796f2c204920616d206120636f6e747261637420616d204920616d20736d617274",
  "linkReferences": {},
  "deployedLinkReferences": {}
}